{
  "contractName": "LandRegistry",
  "abi": [
    {
      "inputs": [],
      "payable": false,
      "stateMutability": "nonpayable",
      "type": "constructor"
    },
    {
      "anonymous": false,
      "inputs": [
        {
          "indexed": false,
          "internalType": "uint256",
          "name": "id",
          "type": "uint256"
        },
        {
          "indexed": false,
          "internalType": "string",
          "name": "_area",
          "type": "string"
        },
        {
          "indexed": false,
          "internalType": "address payable",
          "name": "owner",
          "type": "address"
        },
        {
          "indexed": false,
          "internalType": "string",
          "name": "_city",
          "type": "string"
        },
        {
          "indexed": false,
          "internalType": "string",
          "name": "_state",
          "type": "string"
        },
        {
          "indexed": false,
          "internalType": "string",
          "name": "_pid",
          "type": "string"
        },
        {
          "indexed": false,
          "internalType": "string",
          "name": "_price",
          "type": "string"
        }
      ],
      "name": "LandAdded",
      "type": "event"
    },
    {
      "anonymous": false,
      "inputs": [
        {
          "indexed": false,
          "internalType": "uint256",
          "name": "id",
          "type": "uint256"
        },
        {
          "indexed": false,
          "internalType": "bool",
          "name": "status",
          "type": "bool"
        }
      ],
      "name": "LandVerified",
      "type": "event"
    },
    {
      "anonymous": false,
      "inputs": [
        {
          "indexed": false,
          "internalType": "string",
          "name": "name",
          "type": "string"
        },
        {
          "indexed": false,
          "internalType": "uint256",
          "name": "age",
          "type": "uint256"
        },
        {
          "indexed": false,
          "internalType": "string",
          "name": "email",
          "type": "string"
        },
        {
          "indexed": false,
          "internalType": "string",
          "name": "aadharIpfsHash",
          "type": "string"
        },
        {
          "indexed": false,
          "internalType": "string",
          "name": "pan_num",
          "type": "string"
        },
        {
          "indexed": false,
          "internalType": "string",
          "name": "phone_num",
          "type": "string"
        }
      ],
      "name": "UserRegistered",
      "type": "event"
    },
    {
      "anonymous": false,
      "inputs": [
        {
          "indexed": false,
          "internalType": "address",
          "name": "userAddress",
          "type": "address"
        },
        {
          "indexed": false,
          "internalType": "bool",
          "name": "status",
          "type": "bool"
        }
      ],
      "name": "UserVerified",
      "type": "event"
    },
    {
      "constant": true,
      "inputs": [],
      "name": "landCount",
      "outputs": [
        {
          "internalType": "uint256",
          "name": "",
          "type": "uint256"
        }
      ],
      "payable": false,
      "stateMutability": "view",
      "type": "function"
    },
    {
      "constant": true,
      "inputs": [
        {
          "internalType": "uint256",
          "name": "",
          "type": "uint256"
        }
      ],
      "name": "lands",
      "outputs": [
        {
          "internalType": "uint256",
          "name": "id",
          "type": "uint256"
        },
        {
          "internalType": "string",
          "name": "area",
          "type": "string"
        },
        {
          "internalType": "string",
          "name": "city",
          "type": "string"
        },
        {
          "internalType": "string",
          "name": "state",
          "type": "string"
        },
        {
          "internalType": "string",
          "name": "pid",
          "type": "string"
        },
        {
          "internalType": "address payable",
          "name": "owner",
          "type": "address"
        },
        {
          "internalType": "string",
          "name": "price",
          "type": "string"
        },
        {
          "internalType": "bool",
          "name": "verified",
          "type": "bool"
        }
      ],
      "payable": false,
      "stateMutability": "view",
      "type": "function"
    },
    {
      "constant": true,
      "inputs": [
        {
          "internalType": "address",
          "name": "",
          "type": "address"
        }
      ],
      "name": "registrationMapping",
      "outputs": [
        {
          "internalType": "bool",
          "name": "",
          "type": "bool"
        }
      ],
      "payable": false,
      "stateMutability": "view",
      "type": "function"
    },
    {
      "constant": true,
      "inputs": [],
      "name": "userCount",
      "outputs": [
        {
          "internalType": "uint256",
          "name": "",
          "type": "uint256"
        }
      ],
      "payable": false,
      "stateMutability": "view",
      "type": "function"
    },
    {
      "constant": true,
      "inputs": [
        {
          "internalType": "address",
          "name": "",
          "type": "address"
        }
      ],
      "name": "users",
      "outputs": [
        {
          "internalType": "string",
          "name": "name",
          "type": "string"
        },
        {
          "internalType": "address payable",
          "name": "account",
          "type": "address"
        },
        {
          "internalType": "uint256",
          "name": "age",
          "type": "uint256"
        },
        {
          "internalType": "string",
          "name": "email",
          "type": "string"
        },
        {
          "internalType": "string",
          "name": "aadharIpfsHash",
          "type": "string"
        },
        {
          "internalType": "string",
          "name": "pan_num",
          "type": "string"
        },
        {
          "internalType": "string",
          "name": "phone_num",
          "type": "string"
        },
        {
          "internalType": "bool",
          "name": "verified",
          "type": "bool"
        }
      ],
      "payable": false,
      "stateMutability": "view",
      "type": "function"
    },
    {
      "constant": true,
      "inputs": [
        {
          "internalType": "address",
          "name": "userAddress",
          "type": "address"
        }
      ],
      "name": "isRegistered",
      "outputs": [
        {
          "internalType": "bool",
          "name": "",
          "type": "bool"
        }
      ],
      "payable": false,
      "stateMutability": "view",
      "type": "function"
    },
    {
      "constant": false,
      "inputs": [
        {
          "internalType": "address",
          "name": "userAddress",
          "type": "address"
        },
        {
          "internalType": "bool",
          "name": "_status",
          "type": "bool"
        }
      ],
      "name": "verifyUser",
      "outputs": [],
      "payable": false,
      "stateMutability": "nonpayable",
      "type": "function"
    },
    {
      "constant": false,
      "inputs": [
        {
          "internalType": "uint256",
          "name": "_id",
          "type": "uint256"
        },
        {
          "internalType": "bool",
          "name": "_status",
          "type": "bool"
        }
      ],
      "name": "verifyLand",
      "outputs": [],
      "payable": false,
      "stateMutability": "nonpayable",
      "type": "function"
    },
    {
      "constant": true,
      "inputs": [
        {
          "internalType": "address",
          "name": "_userAddress",
          "type": "address"
        }
      ],
      "name": "getUserVerificationStatus",
      "outputs": [
        {
          "internalType": "bool",
          "name": "",
          "type": "bool"
        }
      ],
      "payable": false,
      "stateMutability": "view",
      "type": "function"
    },
    {
      "constant": true,
      "inputs": [
        {
          "internalType": "address",
          "name": "_userAddress",
          "type": "address"
        }
      ],
      "name": "getLandVerificationStatus",
      "outputs": [
        {
          "internalType": "bool",
          "name": "",
          "type": "bool"
        }
      ],
      "payable": false,
      "stateMutability": "view",
      "type": "function"
    },
    {
      "constant": true,
      "inputs": [],
      "name": "getLandCount",
      "outputs": [
        {
          "internalType": "uint256",
          "name": "",
          "type": "uint256"
        }
      ],
      "payable": false,
      "stateMutability": "view",
      "type": "function"
    },
    {
      "constant": true,
      "inputs": [
        {
          "internalType": "uint256",
          "name": "_id",
          "type": "uint256"
        }
      ],
      "name": "getLandDetails",
      "outputs": [
        {
          "internalType": "string",
          "name": "",
          "type": "string"
        },
        {
          "internalType": "string",
          "name": "",
          "type": "string"
        },
        {
          "internalType": "string",
          "name": "",
          "type": "string"
        },
        {
          "internalType": "string",
          "name": "",
          "type": "string"
        },
        {
          "internalType": "string",
          "name": "",
          "type": "string"
        },
        {
          "internalType": "address",
          "name": "",
          "type": "address"
        }
      ],
      "payable": false,
      "stateMutability": "view",
      "type": "function"
    },
    {
      "constant": false,
      "inputs": [
        {
          "internalType": "string",
          "name": "_name",
          "type": "string"
        },
        {
          "internalType": "uint256",
          "name": "_age",
          "type": "uint256"
        },
        {
          "internalType": "string",
          "name": "_email",
          "type": "string"
        },
        {
          "internalType": "string",
          "name": "_aadharIpfsHash",
          "type": "string"
        },
        {
          "internalType": "string",
          "name": "_pan_num",
          "type": "string"
        },
        {
          "internalType": "string",
          "name": "_phone_num",
          "type": "string"
        }
      ],
      "name": "registerUser",
      "outputs": [],
      "payable": false,
      "stateMutability": "nonpayable",
      "type": "function"
    },
    {
      "constant": true,
      "inputs": [
        {
          "internalType": "address",
          "name": "i",
          "type": "address"
        }
      ],
      "name": "getUserDetails",
      "outputs": [
        {
          "internalType": "string",
          "name": "",
          "type": "string"
        },
        {
          "internalType": "uint256",
          "name": "",
          "type": "uint256"
        },
        {
          "internalType": "string",
          "name": "",
          "type": "string"
        },
        {
          "internalType": "string",
          "name": "",
          "type": "string"
        },
        {
          "internalType": "string",
          "name": "",
          "type": "string"
        },
        {
          "internalType": "string",
          "name": "",
          "type": "string"
        },
        {
          "internalType": "bool",
          "name": "",
          "type": "bool"
        }
      ],
      "payable": false,
      "stateMutability": "view",
      "type": "function"
    },
    {
      "constant": false,
      "inputs": [
        {
          "internalType": "string",
          "name": "_area",
          "type": "string"
        },
        {
          "internalType": "string",
          "name": "_city",
          "type": "string"
        },
        {
          "internalType": "string",
          "name": "_state",
          "type": "string"
        },
        {
          "internalType": "string",
          "name": "_pid",
          "type": "string"
        },
        {
          "internalType": "string",
          "name": "_price",
          "type": "string"
        }
      ],
      "name": "addLand",
      "outputs": [],
      "payable": false,
      "stateMutability": "nonpayable",
      "type": "function"
    }
  ],
  "bytecode": "0x608060405234801561001057600080fd5b5033600060010160006101000a81548173ffffffffffffffffffffffffffffffffffffffff021916908373ffffffffffffffffffffffffffffffffffffffff160217905550613198806100646000396000f3fe608060405234801561001057600080fd5b50600436106100f55760003560e01c80639bb7118611610097578063cc3d967b11610066578063cc3d967b14610c1a578063d7bce65814610e99578063e261f1e514610eb7578063fe0cb7dc14611153576100f5565b80639bb711861461058f578063a38a229f146105eb578063a87430ba1461090c578063c3c5a54714610bbe576100f5565b80635ccfe7c3116100d35780635ccfe7c3146101d05780635ceaa7691461020a5780636d9fccb3146102285780637e7ed0321461053f576100f5565b806307973ccf146100fa57806311f7ce8014610118578063358fd8c014610174575b600080fd5b6101026113dd565b6040518082815260200191505060405180910390f35b61015a6004803603602081101561012e57600080fd5b81019080803573ffffffffffffffffffffffffffffffffffffffff1690602001909291905050506113e3565b604051808215151515815260200191505060405180910390f35b6101b66004803603602081101561018a57600080fd5b81019080803573ffffffffffffffffffffffffffffffffffffffff169060200190929190505050611403565b604051808215151515815260200191505060405180910390f35b610208600480360360408110156101e657600080fd5b810190808035906020019092919080351515906020019092919050505061145c565b005b61021261152e565b6040518082815260200191505060405180910390f35b61053d600480360360a081101561023e57600080fd5b810190808035906020019064010000000081111561025b57600080fd5b82018360208201111561026d57600080fd5b8035906020019184600183028401116401000000008311171561028f57600080fd5b91908080601f016020809104026020016040519081016040528093929190818152602001838380828437600081840152601f19601f820116905080830192505050505050509192919290803590602001906401000000008111156102f257600080fd5b82018360208201111561030457600080fd5b8035906020019184600183028401116401000000008311171561032657600080fd5b91908080601f016020809104026020016040519081016040528093929190818152602001838380828437600081840152601f19601f8201169050808301925050505050505091929192908035906020019064010000000081111561038957600080fd5b82018360208201111561039b57600080fd5b803590602001918460018302840111640100000000831117156103bd57600080fd5b91908080601f016020809104026020016040519081016040528093929190818152602001838380828437600081840152601f19601f8201169050808301925050505050505091929192908035906020019064010000000081111561042057600080fd5b82018360208201111561043257600080fd5b8035906020019184600183028401116401000000008311171561045457600080fd5b91908080601f016020809104026020016040519081016040528093929190818152602001838380828437600081840152601f19601f820116905080830192505050505050509192919290803590602001906401000000008111156104b757600080fd5b8201836020820111156104c957600080fd5b803590602001918460018302840111640100000000831117156104eb57600080fd5b91908080601f016020809104026020016040519081016040528093929190818152602001838380828437600081840152601f19601f820116905080830192505050505050509192919290505050611538565b005b61058d6004803603604081101561055557600080fd5b81019080803573ffffffffffffffffffffffffffffffffffffffff169060200190929190803515159060200190929190505050611960565b005b6105d1600480360360208110156105a557600080fd5b81019080803573ffffffffffffffffffffffffffffffffffffffff169060200190929190505050611a8a565b604051808215151515815260200191505060405180910390f35b61090a600480360360c081101561060157600080fd5b810190808035906020019064010000000081111561061e57600080fd5b82018360208201111561063057600080fd5b8035906020019184600183028401116401000000008311171561065257600080fd5b91908080601f016020809104026020016040519081016040528093929190818152602001838380828437600081840152601f19601f82011690508083019250505050505050919291929080359060200190929190803590602001906401000000008111156106bf57600080fd5b8201836020820111156106d157600080fd5b803590602001918460018302840111640100000000831117156106f357600080fd5b91908080601f016020809104026020016040519081016040528093929190818152602001838380828437600081840152601f19601f8201169050808301925050505050505091929192908035906020019064010000000081111561075657600080fd5b82018360208201111561076857600080fd5b8035906020019184600183028401116401000000008311171561078a57600080fd5b91908080601f016020809104026020016040519081016040528093929190818152602001838380828437600081840152601f19601f820116905080830192505050505050509192919290803590602001906401000000008111156107ed57600080fd5b8201836020820111156107ff57600080fd5b8035906020019184600183028401116401000000008311171561082157600080fd5b91908080601f016020809104026020016040519081016040528093929190818152602001838380828437600081840152601f19601f8201169050808301925050505050505091929192908035906020019064010000000081111561088457600080fd5b82018360208201111561089657600080fd5b803590602001918460018302840111640100000000831117156108b857600080fd5b91908080601f016020809104026020016040519081016040528093929190818152602001838380828437600081840152601f19601f820116905080830192505050505050509192919290505050611ae3565b005b61094e6004803603602081101561092257600080fd5b81019080803573ffffffffffffffffffffffffffffffffffffffff169060200190929190505050611f95565b60405180806020018973ffffffffffffffffffffffffffffffffffffffff1673ffffffffffffffffffffffffffffffffffffffff168152602001888152602001806020018060200180602001806020018715151515815260200186810386528e818151815260200191508051906020019080838360005b838110156109e05780820151818401526020810190506109c5565b50505050905090810190601f168015610a0d5780820380516001836020036101000a031916815260200191505b5086810385528b818151815260200191508051906020019080838360005b83811015610a46578082015181840152602081019050610a2b565b50505050905090810190601f168015610a735780820380516001836020036101000a031916815260200191505b5086810384528a818151815260200191508051906020019080838360005b83811015610aac578082015181840152602081019050610a91565b50505050905090810190601f168015610ad95780820380516001836020036101000a031916815260200191505b50868103835289818151815260200191508051906020019080838360005b83811015610b12578082015181840152602081019050610af7565b50505050905090810190601f168015610b3f5780820380516001836020036101000a031916815260200191505b50868103825288818151815260200191508051906020019080838360005b83811015610b78578082015181840152602081019050610b5d565b50505050905090810190601f168015610ba55780820380516001836020036101000a031916815260200191505b509d505050505050505050505050505060405180910390f35b610c0060048036036020811015610bd457600080fd5b81019080803573ffffffffffffffffffffffffffffffffffffffff169060200190929190505050612302565b604051808215151515815260200191505060405180910390f35b610c5c60048036036020811015610c3057600080fd5b81019080803573ffffffffffffffffffffffffffffffffffffffff169060200190929190505050612365565b6040518080602001888152602001806020018060200180602001806020018715151515815260200186810386528d818151815260200191508051906020019080838360005b83811015610cbc578082015181840152602081019050610ca1565b50505050905090810190601f168015610ce95780820380516001836020036101000a031916815260200191505b5086810385528b818151815260200191508051906020019080838360005b83811015610d22578082015181840152602081019050610d07565b50505050905090810190601f168015610d4f5780820380516001836020036101000a031916815260200191505b5086810384528a818151815260200191508051906020019080838360005b83811015610d88578082015181840152602081019050610d6d565b50505050905090810190601f168015610db55780820380516001836020036101000a031916815260200191505b50868103835289818151815260200191508051906020019080838360005b83811015610dee578082015181840152602081019050610dd3565b50505050905090810190601f168015610e1b5780820380516001836020036101000a031916815260200191505b50868103825288818151815260200191508051906020019080838360005b83811015610e54578082015181840152602081019050610e39565b50505050905090810190601f168015610e815780820380516001836020036101000a031916815260200191505b509c5050505050505050505050505060405180910390f35b610ea1612873565b6040518082815260200191505060405180910390f35b610ee360048036036020811015610ecd57600080fd5b8101908080359060200190929190505050612879565b60405180898152602001806020018060200180602001806020018873ffffffffffffffffffffffffffffffffffffffff1673ffffffffffffffffffffffffffffffffffffffff168152602001806020018715151515815260200186810386528d818151815260200191508051906020019080838360005b83811015610f75578082015181840152602081019050610f5a565b50505050905090810190601f168015610fa25780820380516001836020036101000a031916815260200191505b5086810385528c818151815260200191508051906020019080838360005b83811015610fdb578082015181840152602081019050610fc0565b50505050905090810190601f1680156110085780820380516001836020036101000a031916815260200191505b5086810384528b818151815260200191508051906020019080838360005b83811015611041578082015181840152602081019050611026565b50505050905090810190601f16801561106e5780820380516001836020036101000a031916815260200191505b5086810383528a818151815260200191508051906020019080838360005b838110156110a757808201518184015260208101905061108c565b50505050905090810190601f1680156110d45780820380516001836020036101000a031916815260200191505b50868103825288818151815260200191508051906020019080838360005b8381101561110d5780820151818401526020810190506110f2565b50505050905090810190601f16801561113a5780820380516001836020036101000a031916815260200191505b509d505050505050505050505050505060405180910390f35b61117f6004803603602081101561116957600080fd5b8101908080359060200190929190505050612be6565b6040518080602001806020018060200180602001806020018773ffffffffffffffffffffffffffffffffffffffff1673ffffffffffffffffffffffffffffffffffffffff16815260200186810386528c818151815260200191508051906020019080838360005b838110156112015780820151818401526020810190506111e6565b50505050905090810190601f16801561122e5780820380516001836020036101000a031916815260200191505b5086810385528b818151815260200191508051906020019080838360005b8381101561126757808201518184015260208101905061124c565b50505050905090810190601f1680156112945780820380516001836020036101000a031916815260200191505b5086810384528a818151815260200191508051906020019080838360005b838110156112cd5780820151818401526020810190506112b2565b50505050905090810190601f1680156112fa5780820380516001836020036101000a031916815260200191505b50868103835289818151815260200191508051906020019080838360005b83811015611333578082015181840152602081019050611318565b50505050905090810190601f1680156113605780820380516001836020036101000a031916815260200191505b50868103825288818151815260200191508051906020019080838360005b8381101561139957808201518184015260208101905061137e565b50505050905090810190601f1680156113c65780820380516001836020036101000a031916815260200191505b509b50505050505050505050505060405180910390f35b60095481565b60076020528060005260406000206000915054906101000a900460ff1681565b6000600560008373ffffffffffffffffffffffffffffffffffffffff1673ffffffffffffffffffffffffffffffffffffffff16815260200190815260200160002060070160009054906101000a900460ff169050919050565b600060010160009054906101000a900473ffffffffffffffffffffffffffffffffffffffff1673ffffffffffffffffffffffffffffffffffffffff163373ffffffffffffffffffffffffffffffffffffffff16146114b957600080fd5b806006600084815260200190815260200160002060070160006101000a81548160ff0219169083151502179055507f844a797c747d332e0cacaf14bbcc3c6b2f03b904c69b7ded23f3115305a39089828260405180838152602001821515151581526020019250505060405180910390a15050565b6000600854905090565b611540613004565b60405180610100016040528060085481526020018781526020018681526020018581526020018481526020013373ffffffffffffffffffffffffffffffffffffffff168152602001838152602001600015158152509050806006600060085481526020019081526020016000206000820151816000015560208201518160010190805190602001906115d3929190613061565b5060408201518160020190805190602001906115f0929190613061565b50606082015181600301908051906020019061160d929190613061565b50608082015181600401908051906020019061162a929190613061565b5060a08201518160050160006101000a81548173ffffffffffffffffffffffffffffffffffffffff021916908373ffffffffffffffffffffffffffffffffffffffff16021790555060c082015181600601908051906020019061168e929190613061565b5060e08201518160070160006101000a81548160ff0219169083151502179055509050506008600081548092919060010191905055507f2558b06069279b226efd6ed8e93c3564c6deb16f7036ed71e52a0c5da34d05ef8160000151878360a001518888888860405180888152602001806020018773ffffffffffffffffffffffffffffffffffffffff1673ffffffffffffffffffffffffffffffffffffffff1681526020018060200180602001806020018060200186810386528c818151815260200191508051906020019080838360005b8381101561177c578082015181840152602081019050611761565b50505050905090810190601f1680156117a95780820380516001836020036101000a031916815260200191505b5086810385528a818151815260200191508051906020019080838360005b838110156117e25780820151818401526020810190506117c7565b50505050905090810190601f16801561180f5780820380516001836020036101000a031916815260200191505b50868103845289818151815260200191508051906020019080838360005b8381101561184857808201518184015260208101905061182d565b50505050905090810190601f1680156118755780820380516001836020036101000a031916815260200191505b50868103835288818151815260200191508051906020019080838360005b838110156118ae578082015181840152602081019050611893565b50505050905090810190601f1680156118db5780820380516001836020036101000a031916815260200191505b50868103825287818151815260200191508051906020019080838360005b838110156119145780820151818401526020810190506118f9565b50505050905090810190601f1680156119415780820380516001836020036101000a031916815260200191505b509c5050505050505050505050505060405180910390a1505050505050565b600060010160009054906101000a900473ffffffffffffffffffffffffffffffffffffffff1673ffffffffffffffffffffffffffffffffffffffff163373ffffffffffffffffffffffffffffffffffffffff16146119bd57600080fd5b80600560008473ffffffffffffffffffffffffffffffffffffffff1673ffffffffffffffffffffffffffffffffffffffff16815260200190815260200160002060070160006101000a81548160ff0219169083151502179055507f34736af44d2b91cd43fa896d4cfe0861ec1e6b4538583d385fc671639e9153b28282604051808373ffffffffffffffffffffffffffffffffffffffff1673ffffffffffffffffffffffffffffffffffffffff168152602001821515151581526020019250505060405180910390a15050565b6000600560008373ffffffffffffffffffffffffffffffffffffffff1673ffffffffffffffffffffffffffffffffffffffff16815260200190815260200160002060070160009054906101000a900460ff169050919050565b600760003373ffffffffffffffffffffffffffffffffffffffff1673ffffffffffffffffffffffffffffffffffffffff16815260200190815260200160002060009054906101000a900460ff1615611b3a57600080fd5b611b426130e1565b6040518061010001604052808881526020013373ffffffffffffffffffffffffffffffffffffffff1681526020018781526020018681526020018581526020018481526020018381526020016000151581525090506001600760003373ffffffffffffffffffffffffffffffffffffffff1673ffffffffffffffffffffffffffffffffffffffff16815260200190815260200160002060006101000a81548160ff02191690831515021790555080600560003373ffffffffffffffffffffffffffffffffffffffff1673ffffffffffffffffffffffffffffffffffffffff1681526020019081526020016000206000820151816000019080519060200190611c4b929190613061565b5060208201518160010160006101000a81548173ffffffffffffffffffffffffffffffffffffffff021916908373ffffffffffffffffffffffffffffffffffffffff160217905550604082015181600201556060820151816003019080519060200190611cb9929190613061565b506080820151816004019080519060200190611cd6929190613061565b5060a0820151816005019080519060200190611cf3929190613061565b5060c0820151816006019080519060200190611d10929190613061565b5060e08201518160070160006101000a81548160ff0219169083151502179055509050507fe9d99b89a1e7f7c91c5cdfb01b5ef6a4098b32cb735d90972f11d4ba48ef416387878787878760405180806020018781526020018060200180602001806020018060200186810386528c818151815260200191508051906020019080838360005b83811015611db1578082015181840152602081019050611d96565b50505050905090810190601f168015611dde5780820380516001836020036101000a031916815260200191505b5086810385528a818151815260200191508051906020019080838360005b83811015611e17578082015181840152602081019050611dfc565b50505050905090810190601f168015611e445780820380516001836020036101000a031916815260200191505b50868103845289818151815260200191508051906020019080838360005b83811015611e7d578082015181840152602081019050611e62565b50505050905090810190601f168015611eaa5780820380516001836020036101000a031916815260200191505b50868103835288818151815260200191508051906020019080838360005b83811015611ee3578082015181840152602081019050611ec8565b50505050905090810190601f168015611f105780820380516001836020036101000a031916815260200191505b50868103825287818151815260200191508051906020019080838360005b83811015611f49578082015181840152602081019050611f2e565b50505050905090810190601f168015611f765780820380516001836020036101000a031916815260200191505b509b50505050505050505050505060405180910390a150505050505050565b6005602052806000526040600020600091509050806000018054600181600116156101000203166002900480601f0160208091040260200160405190810160405280929190818152602001828054600181600116156101000203166002900480156120415780601f1061201657610100808354040283529160200191612041565b820191906000526020600020905b81548152906001019060200180831161202457829003601f168201915b5050505050908060010160009054906101000a900473ffffffffffffffffffffffffffffffffffffffff1690806002015490806003018054600181600116156101000203166002900480601f01602080910402602001604051908101604052809291908181526020018280546001816001161561010002031660029004801561210b5780601f106120e05761010080835404028352916020019161210b565b820191906000526020600020905b8154815290600101906020018083116120ee57829003601f168201915b505050505090806004018054600181600116156101000203166002900480601f0160208091040260200160405190810160405280929190818152602001828054600181600116156101000203166002900480156121a95780601f1061217e576101008083540402835291602001916121a9565b820191906000526020600020905b81548152906001019060200180831161218c57829003601f168201915b505050505090806005018054600181600116156101000203166002900480601f0160208091040260200160405190810160405280929190818152602001828054600181600116156101000203166002900480156122475780601f1061221c57610100808354040283529160200191612247565b820191906000526020600020905b81548152906001019060200180831161222a57829003601f168201915b505050505090806006018054600181600116156101000203166002900480601f0160208091040260200160405190810160405280929190818152602001828054600181600116156101000203166002900480156122e55780601f106122ba576101008083540402835291602001916122e5565b820191906000526020600020905b8154815290600101906020018083116122c857829003601f168201915b5050505050908060070160009054906101000a900460ff16905088565b6000600760008373ffffffffffffffffffffffffffffffffffffffff1673ffffffffffffffffffffffffffffffffffffffff16815260200190815260200160002060009054906101000a900460ff161561235f5760019050612360565b5b919050565b606060006060806060806000600560008973ffffffffffffffffffffffffffffffffffffffff1673ffffffffffffffffffffffffffffffffffffffff168152602001908152602001600020600001600560008a73ffffffffffffffffffffffffffffffffffffffff1673ffffffffffffffffffffffffffffffffffffffff16815260200190815260200160002060020154600560008b73ffffffffffffffffffffffffffffffffffffffff1673ffffffffffffffffffffffffffffffffffffffff168152602001908152602001600020600301600560008c73ffffffffffffffffffffffffffffffffffffffff1673ffffffffffffffffffffffffffffffffffffffff168152602001908152602001600020600401600560008d73ffffffffffffffffffffffffffffffffffffffff1673ffffffffffffffffffffffffffffffffffffffff168152602001908152602001600020600501600560008e73ffffffffffffffffffffffffffffffffffffffff1673ffffffffffffffffffffffffffffffffffffffff168152602001908152602001600020600601600560008f73ffffffffffffffffffffffffffffffffffffffff1673ffffffffffffffffffffffffffffffffffffffff16815260200190815260200160002060070160009054906101000a900460ff16868054600181600116156101000203166002900480601f0160208091040260200160405190810160405280929190818152602001828054600181600116156101000203166002900480156125e35780601f106125b8576101008083540402835291602001916125e3565b820191906000526020600020905b8154815290600101906020018083116125c657829003601f168201915b50505050509650848054600181600116156101000203166002900480601f01602080910402602001604051908101604052809291908181526020018280546001816001161561010002031660029004801561267f5780601f106126545761010080835404028352916020019161267f565b820191906000526020600020905b81548152906001019060200180831161266257829003601f168201915b50505050509450838054600181600116156101000203166002900480601f01602080910402602001604051908101604052809291908181526020018280546001816001161561010002031660029004801561271b5780601f106126f05761010080835404028352916020019161271b565b820191906000526020600020905b8154815290600101906020018083116126fe57829003601f168201915b50505050509350828054600181600116156101000203166002900480601f0160208091040260200160405190810160405280929190818152602001828054600181600116156101000203166002900480156127b75780601f1061278c576101008083540402835291602001916127b7565b820191906000526020600020905b81548152906001019060200180831161279a57829003601f168201915b50505050509250818054600181600116156101000203166002900480601f0160208091040260200160405190810160405280929190818152602001828054600181600116156101000203166002900480156128535780601f1061282857610100808354040283529160200191612853565b820191906000526020600020905b81548152906001019060200180831161283657829003601f168201915b505050505091509650965096509650965096509650919395979092949650565b60085481565b6006602052806000526040600020600091509050806000015490806001018054600181600116156101000203166002900480601f01602080910402602001604051908101604052809291908181526020018280546001816001161561010002031660029004801561292b5780601f106129005761010080835404028352916020019161292b565b820191906000526020600020905b81548152906001019060200180831161290e57829003601f168201915b505050505090806002018054600181600116156101000203166002900480601f0160208091040260200160405190810160405280929190818152602001828054600181600116156101000203166002900480156129c95780601f1061299e576101008083540402835291602001916129c9565b820191906000526020600020905b8154815290600101906020018083116129ac57829003601f168201915b505050505090806003018054600181600116156101000203166002900480601f016020809104026020016040519081016040528092919081815260200182805460018160011615610100020316600290048015612a675780601f10612a3c57610100808354040283529160200191612a67565b820191906000526020600020905b815481529060010190602001808311612a4a57829003601f168201915b505050505090806004018054600181600116156101000203166002900480601f016020809104026020016040519081016040528092919081815260200182805460018160011615610100020316600290048015612b055780601f10612ada57610100808354040283529160200191612b05565b820191906000526020600020905b815481529060010190602001808311612ae857829003601f168201915b5050505050908060050160009054906101000a900473ffffffffffffffffffffffffffffffffffffffff1690806006018054600181600116156101000203166002900480601f016020809104026020016040519081016040528092919081815260200182805460018160011615610100020316600290048015612bc95780601f10612b9e57610100808354040283529160200191612bc9565b820191906000526020600020905b815481529060010190602001808311612bac57829003601f168201915b5050505050908060070160009054906101000a900460ff16905088565b60608060608060606000612bf8613004565b600660008981526020019081526020016000206040518061010001604052908160008201548152602001600182018054600181600116156101000203166002900480601f016020809104026020016040519081016040528092919081815260200182805460018160011615610100020316600290048015612cba5780601f10612c8f57610100808354040283529160200191612cba565b820191906000526020600020905b815481529060010190602001808311612c9d57829003601f168201915b50505050508152602001600282018054600181600116156101000203166002900480601f016020809104026020016040519081016040528092919081815260200182805460018160011615610100020316600290048015612d5c5780601f10612d3157610100808354040283529160200191612d5c565b820191906000526020600020905b815481529060010190602001808311612d3f57829003601f168201915b50505050508152602001600382018054600181600116156101000203166002900480601f016020809104026020016040519081016040528092919081815260200182805460018160011615610100020316600290048015612dfe5780601f10612dd357610100808354040283529160200191612dfe565b820191906000526020600020905b815481529060010190602001808311612de157829003601f168201915b50505050508152602001600482018054600181600116156101000203166002900480601f016020809104026020016040519081016040528092919081815260200182805460018160011615610100020316600290048015612ea05780601f10612e7557610100808354040283529160200191612ea0565b820191906000526020600020905b815481529060010190602001808311612e8357829003601f168201915b505050505081526020016005820160009054906101000a900473ffffffffffffffffffffffffffffffffffffffff1673ffffffffffffffffffffffffffffffffffffffff1673ffffffffffffffffffffffffffffffffffffffff168152602001600682018054600181600116156101000203166002900480601f016020809104026020016040519081016040528092919081815260200182805460018160011615610100020316600290048015612f985780601f10612f6d57610100808354040283529160200191612f98565b820191906000526020600020905b815481529060010190602001808311612f7b57829003601f168201915b505050505081526020016007820160009054906101000a900460ff161515151581525050905080602001518160400151826080015183606001518460c001518560a001518595508494508393508292508191508090509650965096509650965096505091939550919395565b6040518061010001604052806000815260200160608152602001606081526020016060815260200160608152602001600073ffffffffffffffffffffffffffffffffffffffff168152602001606081526020016000151581525090565b828054600181600116156101000203166002900490600052602060002090601f016020900481019282601f106130a257805160ff19168380011785556130d0565b828001600101855582156130d0579182015b828111156130cf5782518255916020019190600101906130b4565b5b5090506130dd919061313e565b5090565b60405180610100016040528060608152602001600073ffffffffffffffffffffffffffffffffffffffff16815260200160008152602001606081526020016060815260200160608152602001606081526020016000151581525090565b61316091905b8082111561315c576000816000905550600101613144565b5090565b9056fea265627a7a72315820e96c200b87935fff5962ed6f3507f9a387440d88b1f3c3b5b2fa02cb9c08001564736f6c63430005100032",
  "source": "pragma solidity ^0.5.0;\r\n\r\ncontract LandRegistry {\r\n\r\n// Struct declaration for User\r\n    struct User {\r\n        string name;\r\n        address payable account;\r\n        uint256 age;\r\n        string email;\r\n        string aadharIpfsHash;\r\n        string pan_num;\r\n        string phone_num;\r\n        bool verified;\r\n    }\r\n\r\n// Struct declaration for land\r\n    struct Land {\r\n        uint id;\r\n        string area;\r\n        string city;\r\n        string state;\r\n        string pid;\r\n        address payable owner;\r\n        string price;\r\n        bool verified;\r\n    }\r\n\r\n// Struct declaration for Admin\r\n    struct Admin {\r\n        uint id;\r\n        address account;\r\n        string name;\r\n        uint age;\r\n        string phone_num;\r\n    }\r\n\r\n// Declare an admin object\r\n    Admin admin;\r\n\r\n// Constructor to initialize the account of admin to the address of person who deployed the contract\r\n     constructor() public{\r\n        admin.account = msg.sender ;\r\n    }\r\n\r\n\r\n// Mappings\r\n    mapping(address => User) public users;\r\n    mapping(uint256 => Land) public lands;\r\n    mapping(address => bool) public registrationMapping;\r\n\r\n\r\n// Variables\r\n    uint256 public landCount;\r\n    uint256 public userCount;\r\n\r\n\r\n// Events\r\n    // event UserRegistered(address payable account, string name);\r\n    // event LandAdded(uint256 id, string name, address payable owner);\r\n    // event LandBought(uint256 id, address payable buyer, uint256 price);\r\n    event UserVerified(address userAddress, bool status);\r\n    event LandVerified(uint id, bool status);\r\n    event UserRegistered(string name,uint age,string email,string aadharIpfsHash,string pan_num, string phone_num);\r\n    event LandAdded(uint id,string _area,address payable owner,string _city, string _state,string _pid, string _price);\r\n\r\n\r\n// Check whether user is registered to our network\r\n    function isRegistered(address userAddress)public view returns (bool){\r\n        if(registrationMapping[userAddress])\r\n            return true;\r\n    }\r\n\r\n// Verify User by Admin\r\n    function verifyUser(address userAddress,bool _status) public{\r\n        require(msg.sender == address(admin.account));\r\n        users[userAddress].verified=_status;\r\n\r\n        emit UserVerified(userAddress, _status);\r\n    }\r\n\r\n// Verify Land by Admin\r\n    function verifyLand(uint _id,bool _status) public{\r\n        require(msg.sender == address(admin.account));\r\n        lands[_id].verified=_status;\r\n\r\n        emit LandVerified(_id,_status);\r\n    }\r\n\r\n// Get User verification status\r\n    function getUserVerificationStatus(address _userAddress) public view returns (bool){\r\n        return users[_userAddress].verified;\r\n    }\r\n\r\n// Get land verification status\r\n    function getLandVerificationStatus(address _userAddress) public view returns (bool){\r\n        return users[_userAddress].verified;\r\n    }\r\n\r\n\r\n// To get land count\r\n    function getLandCount() public view returns (uint) {\r\n        return landCount;\r\n    }\r\n\r\n// Get Land details\r\n    function getLandDetails(uint _id) public view returns (string memory,string memory,string memory,string memory,string memory, address){\r\n        Land memory l = lands[_id];\r\n        return (l.area, l.city, l.pid, l.state, l.price, l.owner);\r\n    }\r\n\r\n\r\n\r\n// Register User into the network\r\n    function registerUser(string memory _name,uint256 _age,string memory _email,string memory _aadharIpfsHash,string memory _pan_num,string memory _phone_num) public {\r\n        require(!registrationMapping[msg.sender]);\r\n        User memory newUser = User({\r\n            name: _name,\r\n            account: msg.sender,\r\n            age: _age,\r\n            email: _email,\r\n            aadharIpfsHash: _aadharIpfsHash,\r\n            pan_num: _pan_num,\r\n            phone_num: _phone_num,\r\n            verified:false\r\n        });\r\n\r\n        registrationMapping[msg.sender]=true;\r\n        users[msg.sender] = newUser;\r\n\r\n        emit UserRegistered(_name,_age,_email,_aadharIpfsHash,_pan_num,_phone_num);\r\n    }\r\n\r\n// Get the user details\r\n     function getUserDetails(address i) public view returns (string memory, uint, string memory, string memory, string memory, string memory,bool) {\r\n        return (users[i].name,users[i].age,users[i].email,users[i].aadharIpfsHash,users[i].pan_num,users[i].phone_num,users[i].verified);\r\n    }\r\n\r\n    // Add land \r\n    function addLand(string memory _area, string memory _city, string memory _state, string memory _pid, string memory _price) public {\r\n\r\n        Land memory newLand = Land({\r\n            id: landCount,\r\n            area: _area,\r\n            owner: msg.sender,\r\n            city: _city,\r\n            state: _state,\r\n            pid: _pid,\r\n            verified: false,\r\n            price : _price\r\n        });\r\n\r\n        lands[landCount] = newLand;\r\n        landCount++;\r\n\r\n        emit LandAdded(newLand.id, _area, newLand.owner, _city, _state, _pid, _price);\r\n    }\r\n\r\n}\r\n//     function addLand(string memory _name, uint256 _price) public {\r\n\r\n//         Land memory newLand = Land({\r\n//             id: landCount,\r\n//             name: _name,\r\n//             owner: msg.sender,\r\n//             forSale: false,\r\n//             price: _price\r\n//         });\r\n\r\n//         lands[landCount] = newLand;\r\n//         landCount++;\r\n\r\n//         emit LandAdded(newLand.id, newLand.name, newLand.owner);\r\n//     }\r\n\r\n//     function buyLand(uint256 _id) public payable {\r\n//         Land memory land = lands[_id];\r\n        \r\n//         require(land.forSale, \"Land not for sale\");\r\n//         require(msg.value == land.price, \"Incorrect price\");\r\n\r\n//         address payable oldOwner = land.owner;\r\n//         address payable newOwner = msg.sender;\r\n\r\n//         oldOwner.transfer(msg.value);\r\n\r\n//         land.owner = newOwner;\r\n//         land.forSale = false;\r\n//         lands[_id] = land;\r\n\r\n//         emit LandBought(_id, newOwner, msg.value);\r\n//     }\r\n// }",
  "sourcePath": "D:\\Land-Registration-With-Blockchain\\blockchain\\contracts\\LandRegistry.sol",
  "compiler": {
    "name": "solc",
    "version": "0.5.16+commit.9c3226ce.Emscripten.clang"
  },
  "schemaVersion": "3.4.13",
  "updatedAt": "2023-04-15T10:27:20.000Z",
  "networkType": "ethereum",
  "devdoc": {
    "methods": {}
  },
  "userdoc": {
    "methods": {}
  }
}