{
  "contractName": "LandRegistry",
  "abi": [
    {
      "inputs": [],
      "payable": false,
      "stateMutability": "nonpayable",
      "type": "constructor"
    },
    {
      "anonymous": false,
      "inputs": [
        {
          "indexed": false,
          "internalType": "uint256",
          "name": "id",
          "type": "uint256"
        },
        {
          "indexed": false,
          "internalType": "bool",
          "name": "status",
          "type": "bool"
        }
      ],
      "name": "LandVerified",
      "type": "event"
    },
    {
      "anonymous": false,
      "inputs": [
        {
          "indexed": false,
          "internalType": "string",
          "name": "name",
          "type": "string"
        },
        {
          "indexed": false,
          "internalType": "uint256",
          "name": "age",
          "type": "uint256"
        },
        {
          "indexed": false,
          "internalType": "string",
          "name": "email",
          "type": "string"
        },
        {
          "indexed": false,
          "internalType": "string",
          "name": "aadharIpfsHash",
          "type": "string"
        },
        {
          "indexed": false,
          "internalType": "string",
          "name": "pan_num",
          "type": "string"
        },
        {
          "indexed": false,
          "internalType": "string",
          "name": "phone_num",
          "type": "string"
        }
      ],
      "name": "UserRegistered",
      "type": "event"
    },
    {
      "anonymous": false,
      "inputs": [
        {
          "indexed": false,
          "internalType": "address",
          "name": "userAddress",
          "type": "address"
        },
        {
          "indexed": false,
          "internalType": "bool",
          "name": "status",
          "type": "bool"
        }
      ],
      "name": "UserVerified",
      "type": "event"
    },
    {
      "constant": true,
      "inputs": [],
      "name": "landCount",
      "outputs": [
        {
          "internalType": "uint256",
          "name": "",
          "type": "uint256"
        }
      ],
      "payable": false,
      "stateMutability": "view",
      "type": "function"
    },
    {
      "constant": true,
      "inputs": [
        {
          "internalType": "uint256",
          "name": "",
          "type": "uint256"
        }
      ],
      "name": "lands",
      "outputs": [
        {
          "internalType": "uint256",
          "name": "id",
          "type": "uint256"
        },
        {
          "internalType": "uint256",
          "name": "area",
          "type": "uint256"
        },
        {
          "internalType": "string",
          "name": "city",
          "type": "string"
        },
        {
          "internalType": "string",
          "name": "state",
          "type": "string"
        },
        {
          "internalType": "uint256",
          "name": "pid",
          "type": "uint256"
        },
        {
          "internalType": "uint256",
          "name": "survey_no",
          "type": "uint256"
        },
        {
          "internalType": "address payable",
          "name": "owner",
          "type": "address"
        },
        {
          "internalType": "uint256",
          "name": "price",
          "type": "uint256"
        },
        {
          "internalType": "bool",
          "name": "forSale",
          "type": "bool"
        },
        {
          "internalType": "bool",
          "name": "verified",
          "type": "bool"
        }
      ],
      "payable": false,
      "stateMutability": "view",
      "type": "function"
    },
    {
      "constant": true,
      "inputs": [
        {
          "internalType": "address",
          "name": "",
          "type": "address"
        }
      ],
      "name": "registrationMapping",
      "outputs": [
        {
          "internalType": "bool",
          "name": "",
          "type": "bool"
        }
      ],
      "payable": false,
      "stateMutability": "view",
      "type": "function"
    },
    {
      "constant": true,
      "inputs": [],
      "name": "userCount",
      "outputs": [
        {
          "internalType": "uint256",
          "name": "",
          "type": "uint256"
        }
      ],
      "payable": false,
      "stateMutability": "view",
      "type": "function"
    },
    {
      "constant": true,
      "inputs": [
        {
          "internalType": "address",
          "name": "",
          "type": "address"
        }
      ],
      "name": "users",
      "outputs": [
        {
          "internalType": "string",
          "name": "name",
          "type": "string"
        },
        {
          "internalType": "address payable",
          "name": "account",
          "type": "address"
        },
        {
          "internalType": "uint256",
          "name": "age",
          "type": "uint256"
        },
        {
          "internalType": "string",
          "name": "email",
          "type": "string"
        },
        {
          "internalType": "string",
          "name": "aadharIpfsHash",
          "type": "string"
        },
        {
          "internalType": "string",
          "name": "pan_num",
          "type": "string"
        },
        {
          "internalType": "string",
          "name": "phone_num",
          "type": "string"
        },
        {
          "internalType": "bool",
          "name": "verified",
          "type": "bool"
        }
      ],
      "payable": false,
      "stateMutability": "view",
      "type": "function"
    },
    {
      "constant": true,
      "inputs": [
        {
          "internalType": "address",
          "name": "userAddress",
          "type": "address"
        }
      ],
      "name": "isRegistered",
      "outputs": [
        {
          "internalType": "bool",
          "name": "",
          "type": "bool"
        }
      ],
      "payable": false,
      "stateMutability": "view",
      "type": "function"
    },
    {
      "constant": false,
      "inputs": [
        {
          "internalType": "address",
          "name": "userAddress",
          "type": "address"
        },
        {
          "internalType": "bool",
          "name": "_status",
          "type": "bool"
        }
      ],
      "name": "verifyUser",
      "outputs": [],
      "payable": false,
      "stateMutability": "nonpayable",
      "type": "function"
    },
    {
      "constant": false,
      "inputs": [
        {
          "internalType": "uint256",
          "name": "_id",
          "type": "uint256"
        },
        {
          "internalType": "bool",
          "name": "_status",
          "type": "bool"
        }
      ],
      "name": "verifyLand",
      "outputs": [],
      "payable": false,
      "stateMutability": "nonpayable",
      "type": "function"
    },
    {
      "constant": true,
      "inputs": [
        {
          "internalType": "address",
          "name": "_userAddress",
          "type": "address"
        }
      ],
      "name": "getUserVerificationStatus",
      "outputs": [
        {
          "internalType": "bool",
          "name": "",
          "type": "bool"
        }
      ],
      "payable": false,
      "stateMutability": "view",
      "type": "function"
    },
    {
      "constant": true,
      "inputs": [
        {
          "internalType": "address",
          "name": "_userAddress",
          "type": "address"
        }
      ],
      "name": "getLandVerificationStatus",
      "outputs": [
        {
          "internalType": "bool",
          "name": "",
          "type": "bool"
        }
      ],
      "payable": false,
      "stateMutability": "view",
      "type": "function"
    },
    {
      "constant": true,
      "inputs": [],
      "name": "getLandCount",
      "outputs": [
        {
          "internalType": "uint256",
          "name": "",
          "type": "uint256"
        }
      ],
      "payable": false,
      "stateMutability": "view",
      "type": "function"
    },
    {
      "constant": false,
      "inputs": [
        {
          "internalType": "string",
          "name": "_name",
          "type": "string"
        },
        {
          "internalType": "uint256",
          "name": "_age",
          "type": "uint256"
        },
        {
          "internalType": "string",
          "name": "_email",
          "type": "string"
        },
        {
          "internalType": "string",
          "name": "_aadharIpfsHash",
          "type": "string"
        },
        {
          "internalType": "string",
          "name": "_pan_num",
          "type": "string"
        },
        {
          "internalType": "string",
          "name": "_phone_num",
          "type": "string"
        }
      ],
      "name": "registerUser",
      "outputs": [],
      "payable": false,
      "stateMutability": "nonpayable",
      "type": "function"
    },
    {
      "constant": false,
      "inputs": [
        {
          "internalType": "string",
          "name": "_name",
          "type": "string"
        },
        {
          "internalType": "uint256",
          "name": "_age",
          "type": "uint256"
        },
        {
          "internalType": "string",
          "name": "_email",
          "type": "string"
        },
        {
          "internalType": "string",
          "name": "_aadharIpfsHash",
          "type": "string"
        },
        {
          "internalType": "string",
          "name": "_pan_num",
          "type": "string"
        },
        {
          "internalType": "string",
          "name": "_phone_num",
          "type": "string"
        },
        {
          "internalType": "bool",
          "name": "_verified",
          "type": "bool"
        }
      ],
      "name": "updateUser",
      "outputs": [],
      "payable": false,
      "stateMutability": "nonpayable",
      "type": "function"
    }
  ],
  "bytecode": "0x608060405234801561001057600080fd5b5033600060010160006101000a81548173ffffffffffffffffffffffffffffffffffffffff021916908373ffffffffffffffffffffffffffffffffffffffff160217905550611fce806100646000396000f3fe608060405234801561001057600080fd5b50600436106100cf5760003560e01c80639214c8731161008c578063a87430ba11610066578063a87430ba146108fc578063c3c5a54714610bae578063d7bce65814610c0a578063e261f1e514610c28576100cf565b80639214c873146102525780639bb711861461057f578063a38a229f146105db576100cf565b806307973ccf146100d457806311f7ce80146100f2578063358fd8c01461014e5780635ccfe7c3146101aa5780635ceaa769146101e45780637e7ed03214610202575b600080fd5b6100dc610da7565b6040518082815260200191505060405180910390f35b6101346004803603602081101561010857600080fd5b81019080803573ffffffffffffffffffffffffffffffffffffffff169060200190929190505050610dad565b604051808215151515815260200191505060405180910390f35b6101906004803603602081101561016457600080fd5b81019080803573ffffffffffffffffffffffffffffffffffffffff169060200190929190505050610dcd565b604051808215151515815260200191505060405180910390f35b6101e2600480360360408110156101c057600080fd5b8101908080359060200190929190803515159060200190929190505050610e26565b005b6101ec610ef8565b6040518082815260200191505060405180910390f35b6102506004803603604081101561021857600080fd5b81019080803573ffffffffffffffffffffffffffffffffffffffff169060200190929190803515159060200190929190505050610f02565b005b61057d600480360360e081101561026857600080fd5b810190808035906020019064010000000081111561028557600080fd5b82018360208201111561029757600080fd5b803590602001918460018302840111640100000000831117156102b957600080fd5b91908080601f016020809104026020016040519081016040528093929190818152602001838380828437600081840152601f19601f820116905080830192505050505050509192919290803590602001909291908035906020019064010000000081111561032657600080fd5b82018360208201111561033857600080fd5b8035906020019184600183028401116401000000008311171561035a57600080fd5b91908080601f016020809104026020016040519081016040528093929190818152602001838380828437600081840152601f19601f820116905080830192505050505050509192919290803590602001906401000000008111156103bd57600080fd5b8201836020820111156103cf57600080fd5b803590602001918460018302840111640100000000831117156103f157600080fd5b91908080601f016020809104026020016040519081016040528093929190818152602001838380828437600081840152601f19601f8201169050808301925050505050505091929192908035906020019064010000000081111561045457600080fd5b82018360208201111561046657600080fd5b8035906020019184600183028401116401000000008311171561048857600080fd5b91908080601f016020809104026020016040519081016040528093929190818152602001838380828437600081840152601f19601f820116905080830192505050505050509192919290803590602001906401000000008111156104eb57600080fd5b8201836020820111156104fd57600080fd5b8035906020019184600183028401116401000000008311171561051f57600080fd5b91908080601f016020809104026020016040519081016040528093929190818152602001838380828437600081840152601f19601f82011690508083019250505050505050919291929080351515906020019092919050505061102c565b005b6105c16004803603602081101561059557600080fd5b81019080803573ffffffffffffffffffffffffffffffffffffffff169060200190929190505050611378565b604051808215151515815260200191505060405180910390f35b6108fa600480360360c08110156105f157600080fd5b810190808035906020019064010000000081111561060e57600080fd5b82018360208201111561062057600080fd5b8035906020019184600183028401116401000000008311171561064257600080fd5b91908080601f016020809104026020016040519081016040528093929190818152602001838380828437600081840152601f19601f82011690508083019250505050505050919291929080359060200190929190803590602001906401000000008111156106af57600080fd5b8201836020820111156106c157600080fd5b803590602001918460018302840111640100000000831117156106e357600080fd5b91908080601f016020809104026020016040519081016040528093929190818152602001838380828437600081840152601f19601f8201169050808301925050505050505091929192908035906020019064010000000081111561074657600080fd5b82018360208201111561075857600080fd5b8035906020019184600183028401116401000000008311171561077a57600080fd5b91908080601f016020809104026020016040519081016040528093929190818152602001838380828437600081840152601f19601f820116905080830192505050505050509192919290803590602001906401000000008111156107dd57600080fd5b8201836020820111156107ef57600080fd5b8035906020019184600183028401116401000000008311171561081157600080fd5b91908080601f016020809104026020016040519081016040528093929190818152602001838380828437600081840152601f19601f8201169050808301925050505050505091929192908035906020019064010000000081111561087457600080fd5b82018360208201111561088657600080fd5b803590602001918460018302840111640100000000831117156108a857600080fd5b91908080601f016020809104026020016040519081016040528093929190818152602001838380828437600081840152601f19601f8201169050808301925050505050505091929192905050506113d1565b005b61093e6004803603602081101561091257600080fd5b81019080803573ffffffffffffffffffffffffffffffffffffffff169060200190929190505050611883565b60405180806020018973ffffffffffffffffffffffffffffffffffffffff1673ffffffffffffffffffffffffffffffffffffffff168152602001888152602001806020018060200180602001806020018715151515815260200186810386528e818151815260200191508051906020019080838360005b838110156109d05780820151818401526020810190506109b5565b50505050905090810190601f1680156109fd5780820380516001836020036101000a031916815260200191505b5086810385528b818151815260200191508051906020019080838360005b83811015610a36578082015181840152602081019050610a1b565b50505050905090810190601f168015610a635780820380516001836020036101000a031916815260200191505b5086810384528a818151815260200191508051906020019080838360005b83811015610a9c578082015181840152602081019050610a81565b50505050905090810190601f168015610ac95780820380516001836020036101000a031916815260200191505b50868103835289818151815260200191508051906020019080838360005b83811015610b02578082015181840152602081019050610ae7565b50505050905090810190601f168015610b2f5780820380516001836020036101000a031916815260200191505b50868103825288818151815260200191508051906020019080838360005b83811015610b68578082015181840152602081019050610b4d565b50505050905090810190601f168015610b955780820380516001836020036101000a031916815260200191505b509d505050505050505050505050505060405180910390f35b610bf060048036036020811015610bc457600080fd5b81019080803573ffffffffffffffffffffffffffffffffffffffff169060200190929190505050611bf0565b604051808215151515815260200191505060405180910390f35b610c12611c53565b6040518082815260200191505060405180910390f35b610c5460048036036020811015610c3e57600080fd5b8101908080359060200190929190505050611c59565b604051808b81526020018a815260200180602001806020018981526020018881526020018773ffffffffffffffffffffffffffffffffffffffff1673ffffffffffffffffffffffffffffffffffffffff168152602001868152602001851515151581526020018415151515815260200183810383528b818151815260200191508051906020019080838360005b83811015610cfc578082015181840152602081019050610ce1565b50505050905090810190601f168015610d295780820380516001836020036101000a031916815260200191505b5083810382528a818151815260200191508051906020019080838360005b83811015610d62578082015181840152602081019050610d47565b50505050905090810190601f168015610d8f5780820380516001836020036101000a031916815260200191505b509c5050505050505050505050505060405180910390f35b60095481565b60076020528060005260406000206000915054906101000a900460ff1681565b6000600560008373ffffffffffffffffffffffffffffffffffffffff1673ffffffffffffffffffffffffffffffffffffffff16815260200190815260200160002060070160009054906101000a900460ff169050919050565b600060010160009054906101000a900473ffffffffffffffffffffffffffffffffffffffff1673ffffffffffffffffffffffffffffffffffffffff163373ffffffffffffffffffffffffffffffffffffffff1614610e8357600080fd5b806006600084815260200190815260200160002060080160016101000a81548160ff0219169083151502179055507f844a797c747d332e0cacaf14bbcc3c6b2f03b904c69b7ded23f3115305a39089828260405180838152602001821515151581526020019250505060405180910390a15050565b6000600854905090565b600060010160009054906101000a900473ffffffffffffffffffffffffffffffffffffffff1673ffffffffffffffffffffffffffffffffffffffff163373ffffffffffffffffffffffffffffffffffffffff1614610f5f57600080fd5b80600560008473ffffffffffffffffffffffffffffffffffffffff1673ffffffffffffffffffffffffffffffffffffffff16815260200190815260200160002060070160006101000a81548160ff0219169083151502179055507f34736af44d2b91cd43fa896d4cfe0861ec1e6b4538583d385fc671639e9153b28282604051808373ffffffffffffffffffffffffffffffffffffffff1673ffffffffffffffffffffffffffffffffffffffff168152602001821515151581526020019250505060405180910390a15050565b600760003373ffffffffffffffffffffffffffffffffffffffff1673ffffffffffffffffffffffffffffffffffffffff16815260200190815260200160002060009054906101000a900460ff16801561111257503373ffffffffffffffffffffffffffffffffffffffff16600560003373ffffffffffffffffffffffffffffffffffffffff1673ffffffffffffffffffffffffffffffffffffffff16815260200190815260200160002060010160009054906101000a900473ffffffffffffffffffffffffffffffffffffffff1673ffffffffffffffffffffffffffffffffffffffff16145b61111b57600080fd5b86600560003373ffffffffffffffffffffffffffffffffffffffff1673ffffffffffffffffffffffffffffffffffffffff1681526020019081526020016000206000019080519060200190611171929190611e17565b5085600560003373ffffffffffffffffffffffffffffffffffffffff1673ffffffffffffffffffffffffffffffffffffffff1681526020019081526020016000206002018190555084600560003373ffffffffffffffffffffffffffffffffffffffff1673ffffffffffffffffffffffffffffffffffffffff168152602001908152602001600020600301908051906020019061120f929190611e17565b5083600560003373ffffffffffffffffffffffffffffffffffffffff1673ffffffffffffffffffffffffffffffffffffffff1681526020019081526020016000206004019080519060200190611266929190611e17565b5082600560003373ffffffffffffffffffffffffffffffffffffffff1673ffffffffffffffffffffffffffffffffffffffff16815260200190815260200160002060050190805190602001906112bd929190611e17565b5081600560003373ffffffffffffffffffffffffffffffffffffffff1673ffffffffffffffffffffffffffffffffffffffff1681526020019081526020016000206006019080519060200190611314929190611e17565b5080600560003373ffffffffffffffffffffffffffffffffffffffff1673ffffffffffffffffffffffffffffffffffffffff16815260200190815260200160002060070160006101000a81548160ff02191690831515021790555050505050505050565b6000600560008373ffffffffffffffffffffffffffffffffffffffff1673ffffffffffffffffffffffffffffffffffffffff16815260200190815260200160002060070160009054906101000a900460ff169050919050565b600760003373ffffffffffffffffffffffffffffffffffffffff1673ffffffffffffffffffffffffffffffffffffffff16815260200190815260200160002060009054906101000a900460ff161561142857600080fd5b611430611e97565b6040518061010001604052808881526020013373ffffffffffffffffffffffffffffffffffffffff1681526020018781526020018681526020018581526020018481526020018381526020016000151581525090506001600760003373ffffffffffffffffffffffffffffffffffffffff1673ffffffffffffffffffffffffffffffffffffffff16815260200190815260200160002060006101000a81548160ff02191690831515021790555080600560003373ffffffffffffffffffffffffffffffffffffffff1673ffffffffffffffffffffffffffffffffffffffff1681526020019081526020016000206000820151816000019080519060200190611539929190611ef4565b5060208201518160010160006101000a81548173ffffffffffffffffffffffffffffffffffffffff021916908373ffffffffffffffffffffffffffffffffffffffff1602179055506040820151816002015560608201518160030190805190602001906115a7929190611ef4565b5060808201518160040190805190602001906115c4929190611ef4565b5060a08201518160050190805190602001906115e1929190611ef4565b5060c08201518160060190805190602001906115fe929190611ef4565b5060e08201518160070160006101000a81548160ff0219169083151502179055509050507fe9d99b89a1e7f7c91c5cdfb01b5ef6a4098b32cb735d90972f11d4ba48ef416387878787878760405180806020018781526020018060200180602001806020018060200186810386528c818151815260200191508051906020019080838360005b8381101561169f578082015181840152602081019050611684565b50505050905090810190601f1680156116cc5780820380516001836020036101000a031916815260200191505b5086810385528a818151815260200191508051906020019080838360005b838110156117055780820151818401526020810190506116ea565b50505050905090810190601f1680156117325780820380516001836020036101000a031916815260200191505b50868103845289818151815260200191508051906020019080838360005b8381101561176b578082015181840152602081019050611750565b50505050905090810190601f1680156117985780820380516001836020036101000a031916815260200191505b50868103835288818151815260200191508051906020019080838360005b838110156117d15780820151818401526020810190506117b6565b50505050905090810190601f1680156117fe5780820380516001836020036101000a031916815260200191505b50868103825287818151815260200191508051906020019080838360005b8381101561183757808201518184015260208101905061181c565b50505050905090810190601f1680156118645780820380516001836020036101000a031916815260200191505b509b50505050505050505050505060405180910390a150505050505050565b6005602052806000526040600020600091509050806000018054600181600116156101000203166002900480601f01602080910402602001604051908101604052809291908181526020018280546001816001161561010002031660029004801561192f5780601f106119045761010080835404028352916020019161192f565b820191906000526020600020905b81548152906001019060200180831161191257829003601f168201915b5050505050908060010160009054906101000a900473ffffffffffffffffffffffffffffffffffffffff1690806002015490806003018054600181600116156101000203166002900480601f0160208091040260200160405190810160405280929190818152602001828054600181600116156101000203166002900480156119f95780601f106119ce576101008083540402835291602001916119f9565b820191906000526020600020905b8154815290600101906020018083116119dc57829003601f168201915b505050505090806004018054600181600116156101000203166002900480601f016020809104026020016040519081016040528092919081815260200182805460018160011615610100020316600290048015611a975780601f10611a6c57610100808354040283529160200191611a97565b820191906000526020600020905b815481529060010190602001808311611a7a57829003601f168201915b505050505090806005018054600181600116156101000203166002900480601f016020809104026020016040519081016040528092919081815260200182805460018160011615610100020316600290048015611b355780601f10611b0a57610100808354040283529160200191611b35565b820191906000526020600020905b815481529060010190602001808311611b1857829003601f168201915b505050505090806006018054600181600116156101000203166002900480601f016020809104026020016040519081016040528092919081815260200182805460018160011615610100020316600290048015611bd35780601f10611ba857610100808354040283529160200191611bd3565b820191906000526020600020905b815481529060010190602001808311611bb657829003601f168201915b5050505050908060070160009054906101000a900460ff16905088565b6000600760008373ffffffffffffffffffffffffffffffffffffffff1673ffffffffffffffffffffffffffffffffffffffff16815260200190815260200160002060009054906101000a900460ff1615611c4d5760019050611c4e565b5b919050565b60085481565b6006602052806000526040600020600091509050806000015490806001015490806002018054600181600116156101000203166002900480601f016020809104026020016040519081016040528092919081815260200182805460018160011615610100020316600290048015611d115780601f10611ce657610100808354040283529160200191611d11565b820191906000526020600020905b815481529060010190602001808311611cf457829003601f168201915b505050505090806003018054600181600116156101000203166002900480601f016020809104026020016040519081016040528092919081815260200182805460018160011615610100020316600290048015611daf5780601f10611d8457610100808354040283529160200191611daf565b820191906000526020600020905b815481529060010190602001808311611d9257829003601f168201915b5050505050908060040154908060050154908060060160009054906101000a900473ffffffffffffffffffffffffffffffffffffffff16908060070154908060080160009054906101000a900460ff16908060080160019054906101000a900460ff1690508a565b828054600181600116156101000203166002900490600052602060002090601f016020900481019282601f10611e5857805160ff1916838001178555611e86565b82800160010185558215611e86579182015b82811115611e85578251825591602001919060010190611e6a565b5b509050611e939190611f74565b5090565b60405180610100016040528060608152602001600073ffffffffffffffffffffffffffffffffffffffff16815260200160008152602001606081526020016060815260200160608152602001606081526020016000151581525090565b828054600181600116156101000203166002900490600052602060002090601f016020900481019282601f10611f3557805160ff1916838001178555611f63565b82800160010185558215611f63579182015b82811115611f62578251825591602001919060010190611f47565b5b509050611f709190611f74565b5090565b611f9691905b80821115611f92576000816000905550600101611f7a565b5090565b9056fea265627a7a7231582001950986bd8774795011422b503f2bfc783c95e2b977a964ab9e386834fba12e64736f6c63430005100032",
  "source": "pragma solidity ^0.5.0;\r\n\r\ncontract LandRegistry {\r\n\r\n// Struct declaration for User\r\n    struct User {\r\n        string name;\r\n        address payable account;\r\n        uint256 age;\r\n        string email;\r\n        string aadharIpfsHash;\r\n        string pan_num;\r\n        string phone_num;\r\n        bool verified;\r\n    }\r\n\r\n// Struct declaration for land\r\n    struct Land {\r\n        uint id;\r\n        uint256 area;\r\n        string city;\r\n        string state;\r\n        uint256 pid;\r\n        uint256 survey_no;\r\n        address payable owner;\r\n        uint256 price;\r\n        bool forSale;\r\n        bool verified;\r\n    }\r\n\r\n// Struct declaration for Admin\r\n    struct Admin {\r\n        uint id;\r\n        address account;\r\n        string name;\r\n        uint age;\r\n        string phone_num;\r\n    }\r\n\r\n// Declare an admin object\r\n    Admin admin;\r\n\r\n// Constructor to initialize the account of admin to the address of person who deployed the contract\r\n     constructor() public{\r\n        admin.account = msg.sender ;\r\n    }\r\n\r\n\r\n// Mappings\r\n    mapping(address => User) public users;\r\n    mapping(uint256 => Land) public lands;\r\n    mapping(address => bool) public registrationMapping;\r\n\r\n\r\n// Variables\r\n    uint256 public landCount;\r\n    uint256 public userCount;\r\n\r\n\r\n// Events\r\n    // event UserRegistered(address payable account, string name);\r\n    // event LandAdded(uint256 id, string name, address payable owner);\r\n    // event LandBought(uint256 id, address payable buyer, uint256 price);\r\n    event UserVerified(address userAddress, bool status);\r\n    event LandVerified(uint id, bool status);\r\n    event UserRegistered(string name,uint age,string email,string aadharIpfsHash,string pan_num, string phone_num);\r\n\r\n\r\n// Check whether user is registered to our network\r\n    function isRegistered(address userAddress)public view returns (bool){\r\n        if(registrationMapping[userAddress])\r\n            return true;\r\n    }\r\n\r\n// Verify User by Admin\r\n    function verifyUser(address userAddress,bool _status) public{\r\n        require(msg.sender == address(admin.account));\r\n        users[userAddress].verified=_status;\r\n\r\n        emit UserVerified(userAddress, _status);\r\n    }\r\n\r\n// Verify Land by Admin\r\n    function verifyLand(uint _id,bool _status) public{\r\n        require(msg.sender == address(admin.account));\r\n        lands[_id].verified=_status;\r\n\r\n        emit LandVerified(_id,_status);\r\n    }\r\n\r\n// Get User verification status\r\n    function getUserVerificationStatus(address _userAddress) public view returns (bool){\r\n        return users[_userAddress].verified;\r\n    }\r\n\r\n// Get land verification status\r\n    function getLandVerificationStatus(address _userAddress) public view returns (bool){\r\n        return users[_userAddress].verified;\r\n    }\r\n\r\n\r\n// To get land count\r\n    function getLandCount() public view returns (uint) {\r\n        return landCount;\r\n    }\r\n\r\n\r\n// Register User into the network\r\n    function registerUser(string memory _name,uint256 _age,string memory _email,string memory _aadharIpfsHash,string memory _pan_num,string memory _phone_num) public {\r\n        require(!registrationMapping[msg.sender]);\r\n        User memory newUser = User({\r\n            name: _name,\r\n            account: msg.sender,\r\n            age: _age,\r\n            email: _email,\r\n            aadharIpfsHash: _aadharIpfsHash,\r\n            pan_num: _pan_num,\r\n            phone_num: _phone_num,\r\n            verified:false\r\n        });\r\n\r\n        registrationMapping[msg.sender]=true;\r\n        users[msg.sender] = newUser;\r\n\r\n        emit UserRegistered(_name,_age,_email,_aadharIpfsHash,_pan_num,_phone_num);\r\n    }\r\n\r\n// Update User into network\r\n    function updateUser(string memory _name,uint256 _age,string memory _email,string memory _aadharIpfsHash,string memory _pan_num,string memory _phone_num,bool _verified) public {\r\n        //require that Seller is already registered\r\n        require(registrationMapping[msg.sender] && (users[msg.sender].account == msg.sender));\r\n\r\n        users[msg.sender].name = _name;\r\n        users[msg.sender].age = _age;\r\n        users[msg.sender].email = _email;\r\n        users[msg.sender].aadharIpfsHash = _aadharIpfsHash;\r\n        users[msg.sender].pan_num = _pan_num;\r\n        users[msg.sender].phone_num = _phone_num;\r\n        users[msg.sender].verified = _verified;\r\n    }\r\n}\r\n//     function addLand(string memory _name, uint256 _price) public {\r\n\r\n//         Land memory newLand = Land({\r\n//             id: landCount,\r\n//             name: _name,\r\n//             owner: msg.sender,\r\n//             forSale: false,\r\n//             price: _price\r\n//         });\r\n\r\n//         lands[landCount] = newLand;\r\n//         landCount++;\r\n\r\n//         emit LandAdded(newLand.id, newLand.name, newLand.owner);\r\n//     }\r\n\r\n//     function buyLand(uint256 _id) public payable {\r\n//         Land memory land = lands[_id];\r\n        \r\n//         require(land.forSale, \"Land not for sale\");\r\n//         require(msg.value == land.price, \"Incorrect price\");\r\n\r\n//         address payable oldOwner = land.owner;\r\n//         address payable newOwner = msg.sender;\r\n\r\n//         oldOwner.transfer(msg.value);\r\n\r\n//         land.owner = newOwner;\r\n//         land.forSale = false;\r\n//         lands[_id] = land;\r\n\r\n//         emit LandBought(_id, newOwner, msg.value);\r\n//     }\r\n// }",
  "sourcePath": "C:\\Users\\Manoj H A\\OneDrive\\Desktop\\Land-Registration-With-Blockchain\\blockchain\\contracts\\LandRegistry.sol",
  "compiler": {
    "name": "solc",
    "version": "0.5.16+commit.9c3226ce.Emscripten.clang"
  },
  "schemaVersion": "3.4.11",
  "updatedAt": "2023-04-14T17:39:30.999Z",
  "networkType": "ethereum",
  "devdoc": {
    "methods": {}
  },
  "userdoc": {
    "methods": {}
  }
}