{
  "contractName": "LandRegistry",
  "abi": [
    {
      "constant": true,
      "inputs": [],
      "name": "userCount",
      "outputs": [
        {
          "name": "",
          "type": "uint256"
        }
      ],
      "payable": false,
      "stateMutability": "view",
      "type": "function",
      "signature": "0x07973ccf"
    },
    {
      "constant": true,
      "inputs": [
        {
          "name": "",
          "type": "address"
        }
      ],
      "name": "registrationMapping",
      "outputs": [
        {
          "name": "",
          "type": "bool"
        }
      ],
      "payable": false,
      "stateMutability": "view",
      "type": "function",
      "signature": "0x11f7ce80"
    },
    {
      "constant": true,
      "inputs": [
        {
          "name": "",
          "type": "address"
        }
      ],
      "name": "users",
      "outputs": [
        {
          "name": "name",
          "type": "string"
        },
        {
          "name": "account",
          "type": "address"
        },
        {
          "name": "age",
          "type": "uint256"
        },
        {
          "name": "email",
          "type": "string"
        },
        {
          "name": "aadharIpfsHash",
          "type": "string"
        },
        {
          "name": "pan_num",
          "type": "string"
        },
        {
          "name": "phone_num",
          "type": "string"
        },
        {
          "name": "verified",
          "type": "bool"
        }
      ],
      "payable": false,
      "stateMutability": "view",
      "type": "function",
      "signature": "0xa87430ba"
    },
    {
      "constant": true,
      "inputs": [],
      "name": "landCount",
      "outputs": [
        {
          "name": "",
          "type": "uint256"
        }
      ],
      "payable": false,
      "stateMutability": "view",
      "type": "function",
      "signature": "0xd7bce658"
    },
    {
      "constant": true,
      "inputs": [
        {
          "name": "",
          "type": "uint256"
        }
      ],
      "name": "lands",
      "outputs": [
        {
          "name": "id",
          "type": "uint256"
        },
        {
          "name": "area",
          "type": "uint256"
        },
        {
          "name": "city",
          "type": "string"
        },
        {
          "name": "state",
          "type": "string"
        },
        {
          "name": "pid",
          "type": "uint256"
        },
        {
          "name": "survey_no",
          "type": "uint256"
        },
        {
          "name": "owner",
          "type": "address"
        },
        {
          "name": "price",
          "type": "uint256"
        },
        {
          "name": "forSale",
          "type": "bool"
        },
        {
          "name": "verified",
          "type": "bool"
        }
      ],
      "payable": false,
      "stateMutability": "view",
      "type": "function",
      "signature": "0xe261f1e5"
    },
    {
      "inputs": [],
      "payable": false,
      "stateMutability": "nonpayable",
      "type": "constructor",
      "signature": "constructor"
    },
    {
      "anonymous": false,
      "inputs": [
        {
          "indexed": false,
          "name": "userAddress",
          "type": "address"
        },
        {
          "indexed": false,
          "name": "status",
          "type": "bool"
        }
      ],
      "name": "UserVerified",
      "type": "event",
      "signature": "0x34736af44d2b91cd43fa896d4cfe0861ec1e6b4538583d385fc671639e9153b2"
    },
    {
      "anonymous": false,
      "inputs": [
        {
          "indexed": false,
          "name": "id",
          "type": "uint256"
        },
        {
          "indexed": false,
          "name": "status",
          "type": "bool"
        }
      ],
      "name": "LandVerified",
      "type": "event",
      "signature": "0x844a797c747d332e0cacaf14bbcc3c6b2f03b904c69b7ded23f3115305a39089"
    },
    {
      "anonymous": false,
      "inputs": [
        {
          "indexed": false,
          "name": "name",
          "type": "string"
        },
        {
          "indexed": false,
          "name": "age",
          "type": "uint256"
        },
        {
          "indexed": false,
          "name": "email",
          "type": "string"
        },
        {
          "indexed": false,
          "name": "aadharIpfsHash",
          "type": "string"
        },
        {
          "indexed": false,
          "name": "pan_num",
          "type": "string"
        },
        {
          "indexed": false,
          "name": "phone_num",
          "type": "string"
        }
      ],
      "name": "UserRegistered",
      "type": "event",
      "signature": "0xe9d99b89a1e7f7c91c5cdfb01b5ef6a4098b32cb735d90972f11d4ba48ef4163"
    },
    {
      "constant": true,
      "inputs": [
        {
          "name": "userAddress",
          "type": "address"
        }
      ],
      "name": "isRegistered",
      "outputs": [
        {
          "name": "",
          "type": "bool"
        }
      ],
      "payable": false,
      "stateMutability": "view",
      "type": "function",
      "signature": "0xc3c5a547"
    },
    {
      "constant": false,
      "inputs": [
        {
          "name": "userAddress",
          "type": "address"
        },
        {
          "name": "_status",
          "type": "bool"
        }
      ],
      "name": "verifyUser",
      "outputs": [],
      "payable": false,
      "stateMutability": "nonpayable",
      "type": "function",
      "signature": "0x7e7ed032"
    },
    {
      "constant": false,
      "inputs": [
        {
          "name": "_id",
          "type": "uint256"
        },
        {
          "name": "_status",
          "type": "bool"
        }
      ],
      "name": "verifyLand",
      "outputs": [],
      "payable": false,
      "stateMutability": "nonpayable",
      "type": "function",
      "signature": "0x5ccfe7c3"
    },
    {
      "constant": true,
      "inputs": [
        {
          "name": "_userAddress",
          "type": "address"
        }
      ],
      "name": "getUserVerificationStatus",
      "outputs": [
        {
          "name": "",
          "type": "bool"
        }
      ],
      "payable": false,
      "stateMutability": "view",
      "type": "function",
      "signature": "0x358fd8c0"
    },
    {
      "constant": true,
      "inputs": [
        {
          "name": "_userAddress",
          "type": "address"
        }
      ],
      "name": "getLandVerificationStatus",
      "outputs": [
        {
          "name": "",
          "type": "bool"
        }
      ],
      "payable": false,
      "stateMutability": "view",
      "type": "function",
      "signature": "0x9bb71186"
    },
    {
      "constant": true,
      "inputs": [],
      "name": "getLandCount",
      "outputs": [
        {
          "name": "",
          "type": "uint256"
        }
      ],
      "payable": false,
      "stateMutability": "view",
      "type": "function",
      "signature": "0x5ceaa769"
    },
    {
      "constant": false,
      "inputs": [
        {
          "name": "_name",
          "type": "string"
        },
        {
          "name": "_age",
          "type": "uint256"
        },
        {
          "name": "_email",
          "type": "string"
        },
        {
          "name": "_aadharIpfsHash",
          "type": "string"
        },
        {
          "name": "_pan_num",
          "type": "string"
        },
        {
          "name": "_phone_num",
          "type": "string"
        }
      ],
      "name": "registerUser",
      "outputs": [],
      "payable": false,
      "stateMutability": "nonpayable",
      "type": "function",
      "signature": "0xa38a229f"
    },
    {
      "constant": true,
      "inputs": [
        {
          "name": "i",
          "type": "address"
        }
      ],
      "name": "getUserDetails",
      "outputs": [
        {
          "name": "",
          "type": "string"
        },
        {
          "name": "",
          "type": "uint256"
        },
        {
          "name": "",
          "type": "string"
        },
        {
          "name": "",
          "type": "string"
        },
        {
          "name": "",
          "type": "string"
        },
        {
          "name": "",
          "type": "string"
        },
        {
          "name": "",
          "type": "bool"
        }
      ],
      "payable": false,
      "stateMutability": "view",
      "type": "function",
      "signature": "0xcc3d967b"
    }
  ],
  "bytecode": "0x608060405234801561001057600080fd5b5033600060010160006101000a81548173ffffffffffffffffffffffffffffffffffffffff021916908373ffffffffffffffffffffffffffffffffffffffff160217905550612100806100646000396000f3fe6080604052600436106100c5576000357c0100000000000000000000000000000000000000000000000000000000900463ffffffff16806307973ccf146100ca57806311f7ce80146100f5578063358fd8c01461015e5780635ccfe7c3146101c75780635ceaa7691461020e5780637e7ed032146102395780639bb7118614610296578063a38a229f146102ff578063a87430ba1461062d578063c3c5a547146108ec578063cc3d967b14610955578063d7bce65814610be1578063e261f1e514610c0c575b600080fd5b3480156100d657600080fd5b506100df610d98565b6040518082815260200191505060405180910390f35b34801561010157600080fd5b506101446004803603602081101561011857600080fd5b81019080803573ffffffffffffffffffffffffffffffffffffffff169060200190929190505050610d9e565b604051808215151515815260200191505060405180910390f35b34801561016a57600080fd5b506101ad6004803603602081101561018157600080fd5b81019080803573ffffffffffffffffffffffffffffffffffffffff169060200190929190505050610dbe565b604051808215151515815260200191505060405180910390f35b3480156101d357600080fd5b5061020c600480360360408110156101ea57600080fd5b8101908080359060200190929190803515159060200190929190505050610e17565b005b34801561021a57600080fd5b50610223610eeb565b6040518082815260200191505060405180910390f35b34801561024557600080fd5b506102946004803603604081101561025c57600080fd5b81019080803573ffffffffffffffffffffffffffffffffffffffff169060200190929190803515159060200190929190505050610ef5565b005b3480156102a257600080fd5b506102e5600480360360208110156102b957600080fd5b81019080803573ffffffffffffffffffffffffffffffffffffffff169060200190929190505050611021565b604051808215151515815260200191505060405180910390f35b34801561030b57600080fd5b5061062b600480360360c081101561032257600080fd5b810190808035906020019064010000000081111561033f57600080fd5b82018360208201111561035157600080fd5b8035906020019184600183028401116401000000008311171561037357600080fd5b91908080601f016020809104026020016040519081016040528093929190818152602001838380828437600081840152601f19601f82011690508083019250505050505050919291929080359060200190929190803590602001906401000000008111156103e057600080fd5b8201836020820111156103f257600080fd5b8035906020019184600183028401116401000000008311171561041457600080fd5b91908080601f016020809104026020016040519081016040528093929190818152602001838380828437600081840152601f19601f8201169050808301925050505050505091929192908035906020019064010000000081111561047757600080fd5b82018360208201111561048957600080fd5b803590602001918460018302840111640100000000831117156104ab57600080fd5b91908080601f016020809104026020016040519081016040528093929190818152602001838380828437600081840152601f19601f8201169050808301925050505050505091929192908035906020019064010000000081111561050e57600080fd5b82018360208201111561052057600080fd5b8035906020019184600183028401116401000000008311171561054257600080fd5b91908080601f016020809104026020016040519081016040528093929190818152602001838380828437600081840152601f19601f820116905080830192505050505050509192919290803590602001906401000000008111156105a557600080fd5b8201836020820111156105b757600080fd5b803590602001918460018302840111640100000000831117156105d957600080fd5b91908080601f016020809104026020016040519081016040528093929190818152602001838380828437600081840152601f19601f82011690508083019250505050505050919291929050505061107a565b005b34801561063957600080fd5b5061067c6004803603602081101561065057600080fd5b81019080803573ffffffffffffffffffffffffffffffffffffffff16906020019092919050505061152f565b60405180806020018973ffffffffffffffffffffffffffffffffffffffff1673ffffffffffffffffffffffffffffffffffffffff168152602001888152602001806020018060200180602001806020018715151515815260200186810386528e818151815260200191508051906020019080838360005b8381101561070e5780820151818401526020810190506106f3565b50505050905090810190601f16801561073b5780820380516001836020036101000a031916815260200191505b5086810385528b818151815260200191508051906020019080838360005b83811015610774578082015181840152602081019050610759565b50505050905090810190601f1680156107a15780820380516001836020036101000a031916815260200191505b5086810384528a818151815260200191508051906020019080838360005b838110156107da5780820151818401526020810190506107bf565b50505050905090810190601f1680156108075780820380516001836020036101000a031916815260200191505b50868103835289818151815260200191508051906020019080838360005b83811015610840578082015181840152602081019050610825565b50505050905090810190601f16801561086d5780820380516001836020036101000a031916815260200191505b50868103825288818151815260200191508051906020019080838360005b838110156108a657808201518184015260208101905061088b565b50505050905090810190601f1680156108d35780820380516001836020036101000a031916815260200191505b509d505050505050505050505050505060405180910390f35b3480156108f857600080fd5b5061093b6004803603602081101561090f57600080fd5b81019080803573ffffffffffffffffffffffffffffffffffffffff16906020019092919050505061189c565b604051808215151515815260200191505060405180910390f35b34801561096157600080fd5b506109a46004803603602081101561097857600080fd5b81019080803573ffffffffffffffffffffffffffffffffffffffff1690602001909291905050506118ff565b6040518080602001888152602001806020018060200180602001806020018715151515815260200186810386528d818151815260200191508051906020019080838360005b83811015610a045780820151818401526020810190506109e9565b50505050905090810190601f168015610a315780820380516001836020036101000a031916815260200191505b5086810385528b818151815260200191508051906020019080838360005b83811015610a6a578082015181840152602081019050610a4f565b50505050905090810190601f168015610a975780820380516001836020036101000a031916815260200191505b5086810384528a818151815260200191508051906020019080838360005b83811015610ad0578082015181840152602081019050610ab5565b50505050905090810190601f168015610afd5780820380516001836020036101000a031916815260200191505b50868103835289818151815260200191508051906020019080838360005b83811015610b36578082015181840152602081019050610b1b565b50505050905090810190601f168015610b635780820380516001836020036101000a031916815260200191505b50868103825288818151815260200191508051906020019080838360005b83811015610b9c578082015181840152602081019050610b81565b50505050905090810190601f168015610bc95780820380516001836020036101000a031916815260200191505b509c5050505050505050505050505060405180910390f35b348015610bed57600080fd5b50610bf6611e0d565b6040518082815260200191505060405180910390f35b348015610c1857600080fd5b50610c4560048036036020811015610c2f57600080fd5b8101908080359060200190929190505050611e13565b604051808b81526020018a815260200180602001806020018981526020018881526020018773ffffffffffffffffffffffffffffffffffffffff1673ffffffffffffffffffffffffffffffffffffffff168152602001868152602001851515151581526020018415151515815260200183810383528b818151815260200191508051906020019080838360005b83811015610ced578082015181840152602081019050610cd2565b50505050905090810190601f168015610d1a5780820380516001836020036101000a031916815260200191505b5083810382528a818151815260200191508051906020019080838360005b83811015610d53578082015181840152602081019050610d38565b50505050905090810190601f168015610d805780820380516001836020036101000a031916815260200191505b509c5050505050505050505050505060405180910390f35b60095481565b60076020528060005260406000206000915054906101000a900460ff1681565b6000600560008373ffffffffffffffffffffffffffffffffffffffff1673ffffffffffffffffffffffffffffffffffffffff16815260200190815260200160002060070160009054906101000a900460ff169050919050565b600060010160009054906101000a900473ffffffffffffffffffffffffffffffffffffffff1673ffffffffffffffffffffffffffffffffffffffff163373ffffffffffffffffffffffffffffffffffffffff16141515610e7657600080fd5b806006600084815260200190815260200160002060080160016101000a81548160ff0219169083151502179055507f844a797c747d332e0cacaf14bbcc3c6b2f03b904c69b7ded23f3115305a39089828260405180838152602001821515151581526020019250505060405180910390a15050565b6000600854905090565b600060010160009054906101000a900473ffffffffffffffffffffffffffffffffffffffff1673ffffffffffffffffffffffffffffffffffffffff163373ffffffffffffffffffffffffffffffffffffffff16141515610f5457600080fd5b80600560008473ffffffffffffffffffffffffffffffffffffffff1673ffffffffffffffffffffffffffffffffffffffff16815260200190815260200160002060070160006101000a81548160ff0219169083151502179055507f34736af44d2b91cd43fa896d4cfe0861ec1e6b4538583d385fc671639e9153b28282604051808373ffffffffffffffffffffffffffffffffffffffff1673ffffffffffffffffffffffffffffffffffffffff168152602001821515151581526020019250505060405180910390a15050565b6000600560008373ffffffffffffffffffffffffffffffffffffffff1673ffffffffffffffffffffffffffffffffffffffff16815260200190815260200160002060070160009054906101000a900460ff169050919050565b600760003373ffffffffffffffffffffffffffffffffffffffff1673ffffffffffffffffffffffffffffffffffffffff16815260200190815260200160002060009054906101000a900460ff161515156110d357600080fd5b6110db611fd1565b610100604051908101604052808881526020013373ffffffffffffffffffffffffffffffffffffffff1681526020018781526020018681526020018581526020018481526020018381526020016000151581525090506001600760003373ffffffffffffffffffffffffffffffffffffffff1673ffffffffffffffffffffffffffffffffffffffff16815260200190815260200160002060006101000a81548160ff02191690831515021790555080600560003373ffffffffffffffffffffffffffffffffffffffff1673ffffffffffffffffffffffffffffffffffffffff16815260200190815260200160002060008201518160000190805190602001906111e592919061202f565b5060208201518160010160006101000a81548173ffffffffffffffffffffffffffffffffffffffff021916908373ffffffffffffffffffffffffffffffffffffffff16021790555060408201518160020155606082015181600301908051906020019061125392919061202f565b50608082015181600401908051906020019061127092919061202f565b5060a082015181600501908051906020019061128d92919061202f565b5060c08201518160060190805190602001906112aa92919061202f565b5060e08201518160070160006101000a81548160ff0219169083151502179055509050507fe9d99b89a1e7f7c91c5cdfb01b5ef6a4098b32cb735d90972f11d4ba48ef416387878787878760405180806020018781526020018060200180602001806020018060200186810386528c818151815260200191508051906020019080838360005b8381101561134b578082015181840152602081019050611330565b50505050905090810190601f1680156113785780820380516001836020036101000a031916815260200191505b5086810385528a818151815260200191508051906020019080838360005b838110156113b1578082015181840152602081019050611396565b50505050905090810190601f1680156113de5780820380516001836020036101000a031916815260200191505b50868103845289818151815260200191508051906020019080838360005b838110156114175780820151818401526020810190506113fc565b50505050905090810190601f1680156114445780820380516001836020036101000a031916815260200191505b50868103835288818151815260200191508051906020019080838360005b8381101561147d578082015181840152602081019050611462565b50505050905090810190601f1680156114aa5780820380516001836020036101000a031916815260200191505b50868103825287818151815260200191508051906020019080838360005b838110156114e35780820151818401526020810190506114c8565b50505050905090810190601f1680156115105780820380516001836020036101000a031916815260200191505b509b50505050505050505050505060405180910390a150505050505050565b6005602052806000526040600020600091509050806000018054600181600116156101000203166002900480601f0160208091040260200160405190810160405280929190818152602001828054600181600116156101000203166002900480156115db5780601f106115b0576101008083540402835291602001916115db565b820191906000526020600020905b8154815290600101906020018083116115be57829003601f168201915b5050505050908060010160009054906101000a900473ffffffffffffffffffffffffffffffffffffffff1690806002015490806003018054600181600116156101000203166002900480601f0160208091040260200160405190810160405280929190818152602001828054600181600116156101000203166002900480156116a55780601f1061167a576101008083540402835291602001916116a5565b820191906000526020600020905b81548152906001019060200180831161168857829003601f168201915b505050505090806004018054600181600116156101000203166002900480601f0160208091040260200160405190810160405280929190818152602001828054600181600116156101000203166002900480156117435780601f1061171857610100808354040283529160200191611743565b820191906000526020600020905b81548152906001019060200180831161172657829003601f168201915b505050505090806005018054600181600116156101000203166002900480601f0160208091040260200160405190810160405280929190818152602001828054600181600116156101000203166002900480156117e15780601f106117b6576101008083540402835291602001916117e1565b820191906000526020600020905b8154815290600101906020018083116117c457829003601f168201915b505050505090806006018054600181600116156101000203166002900480601f01602080910402602001604051908101604052809291908181526020018280546001816001161561010002031660029004801561187f5780601f106118545761010080835404028352916020019161187f565b820191906000526020600020905b81548152906001019060200180831161186257829003601f168201915b5050505050908060070160009054906101000a900460ff16905088565b6000600760008373ffffffffffffffffffffffffffffffffffffffff1673ffffffffffffffffffffffffffffffffffffffff16815260200190815260200160002060009054906101000a900460ff16156118f957600190506118fa565b5b919050565b606060006060806060806000600560008973ffffffffffffffffffffffffffffffffffffffff1673ffffffffffffffffffffffffffffffffffffffff168152602001908152602001600020600001600560008a73ffffffffffffffffffffffffffffffffffffffff1673ffffffffffffffffffffffffffffffffffffffff16815260200190815260200160002060020154600560008b73ffffffffffffffffffffffffffffffffffffffff1673ffffffffffffffffffffffffffffffffffffffff168152602001908152602001600020600301600560008c73ffffffffffffffffffffffffffffffffffffffff1673ffffffffffffffffffffffffffffffffffffffff168152602001908152602001600020600401600560008d73ffffffffffffffffffffffffffffffffffffffff1673ffffffffffffffffffffffffffffffffffffffff168152602001908152602001600020600501600560008e73ffffffffffffffffffffffffffffffffffffffff1673ffffffffffffffffffffffffffffffffffffffff168152602001908152602001600020600601600560008f73ffffffffffffffffffffffffffffffffffffffff1673ffffffffffffffffffffffffffffffffffffffff16815260200190815260200160002060070160009054906101000a900460ff16868054600181600116156101000203166002900480601f016020809104026020016040519081016040528092919081815260200182805460018160011615610100020316600290048015611b7d5780601f10611b5257610100808354040283529160200191611b7d565b820191906000526020600020905b815481529060010190602001808311611b6057829003601f168201915b50505050509650848054600181600116156101000203166002900480601f016020809104026020016040519081016040528092919081815260200182805460018160011615610100020316600290048015611c195780601f10611bee57610100808354040283529160200191611c19565b820191906000526020600020905b815481529060010190602001808311611bfc57829003601f168201915b50505050509450838054600181600116156101000203166002900480601f016020809104026020016040519081016040528092919081815260200182805460018160011615610100020316600290048015611cb55780601f10611c8a57610100808354040283529160200191611cb5565b820191906000526020600020905b815481529060010190602001808311611c9857829003601f168201915b50505050509350828054600181600116156101000203166002900480601f016020809104026020016040519081016040528092919081815260200182805460018160011615610100020316600290048015611d515780601f10611d2657610100808354040283529160200191611d51565b820191906000526020600020905b815481529060010190602001808311611d3457829003601f168201915b50505050509250818054600181600116156101000203166002900480601f016020809104026020016040519081016040528092919081815260200182805460018160011615610100020316600290048015611ded5780601f10611dc257610100808354040283529160200191611ded565b820191906000526020600020905b815481529060010190602001808311611dd057829003601f168201915b505050505091509650965096509650965096509650919395979092949650565b60085481565b6006602052806000526040600020600091509050806000015490806001015490806002018054600181600116156101000203166002900480601f016020809104026020016040519081016040528092919081815260200182805460018160011615610100020316600290048015611ecb5780601f10611ea057610100808354040283529160200191611ecb565b820191906000526020600020905b815481529060010190602001808311611eae57829003601f168201915b505050505090806003018054600181600116156101000203166002900480601f016020809104026020016040519081016040528092919081815260200182805460018160011615610100020316600290048015611f695780601f10611f3e57610100808354040283529160200191611f69565b820191906000526020600020905b815481529060010190602001808311611f4c57829003601f168201915b5050505050908060040154908060050154908060060160009054906101000a900473ffffffffffffffffffffffffffffffffffffffff16908060070154908060080160009054906101000a900460ff16908060080160019054906101000a900460ff1690508a565b6101006040519081016040528060608152602001600073ffffffffffffffffffffffffffffffffffffffff16815260200160008152602001606081526020016060815260200160608152602001606081526020016000151581525090565b828054600181600116156101000203166002900490600052602060002090601f016020900481019282601f1061207057805160ff191683800117855561209e565b8280016001018555821561209e579182015b8281111561209d578251825591602001919060010190612082565b5b5090506120ab91906120af565b5090565b6120d191905b808211156120cd5760008160009055506001016120b5565b5090565b9056fea165627a7a72305820be982549b5560589db008f2edbee9fb66400bc35e481fed2c360a0da575884c00029",
  "source": "pragma solidity ^0.5.0;\r\n\r\ncontract LandRegistry {\r\n\r\n// Struct declaration for User\r\n    struct User {\r\n        string name;\r\n        address payable account;\r\n        uint256 age;\r\n        string email;\r\n        string aadharIpfsHash;\r\n        string pan_num;\r\n        string phone_num;\r\n        bool verified;\r\n    }\r\n\r\n// Struct declaration for land\r\n    struct Land {\r\n        uint id;\r\n        uint256 area;\r\n        string city;\r\n        string state;\r\n        uint256 pid;\r\n        uint256 survey_no;\r\n        address payable owner;\r\n        uint256 price;\r\n        bool forSale;\r\n        bool verified;\r\n    }\r\n\r\n// Struct declaration for Admin\r\n    struct Admin {\r\n        uint id;\r\n        address account;\r\n        string name;\r\n        uint age;\r\n        string phone_num;\r\n    }\r\n\r\n// Declare an admin object\r\n    Admin admin;\r\n\r\n// Constructor to initialize the account of admin to the address of person who deployed the contract\r\n     constructor() public{\r\n        admin.account = msg.sender ;\r\n    }\r\n\r\n\r\n// Mappings\r\n    mapping(address => User) public users;\r\n    mapping(uint256 => Land) public lands;\r\n    mapping(address => bool) public registrationMapping;\r\n\r\n\r\n// Variables\r\n    uint256 public landCount;\r\n    uint256 public userCount;\r\n\r\n\r\n// Events\r\n    // event UserRegistered(address payable account, string name);\r\n    // event LandAdded(uint256 id, string name, address payable owner);\r\n    // event LandBought(uint256 id, address payable buyer, uint256 price);\r\n    event UserVerified(address userAddress, bool status);\r\n    event LandVerified(uint id, bool status);\r\n    event UserRegistered(string name,uint age,string email,string aadharIpfsHash,string pan_num, string phone_num);\r\n\r\n\r\n// Check whether user is registered to our network\r\n    function isRegistered(address userAddress)public view returns (bool){\r\n        if(registrationMapping[userAddress])\r\n            return true;\r\n    }\r\n\r\n// Verify User by Admin\r\n    function verifyUser(address userAddress,bool _status) public{\r\n        require(msg.sender == address(admin.account));\r\n        users[userAddress].verified=_status;\r\n\r\n        emit UserVerified(userAddress, _status);\r\n    }\r\n\r\n// Verify Land by Admin\r\n    function verifyLand(uint _id,bool _status) public{\r\n        require(msg.sender == address(admin.account));\r\n        lands[_id].verified=_status;\r\n\r\n        emit LandVerified(_id,_status);\r\n    }\r\n\r\n// Get User verification status\r\n    function getUserVerificationStatus(address _userAddress) public view returns (bool){\r\n        return users[_userAddress].verified;\r\n    }\r\n\r\n// Get land verification status\r\n    function getLandVerificationStatus(address _userAddress) public view returns (bool){\r\n        return users[_userAddress].verified;\r\n    }\r\n\r\n\r\n// To get land count\r\n    function getLandCount() public view returns (uint) {\r\n        return landCount;\r\n    }\r\n\r\n\r\n// Register User into the network\r\n    function registerUser(string memory _name,uint256 _age,string memory _email,string memory _aadharIpfsHash,string memory _pan_num,string memory _phone_num) public {\r\n        require(!registrationMapping[msg.sender]);\r\n        User memory newUser = User({\r\n            name: _name,\r\n            account: msg.sender,\r\n            age: _age,\r\n            email: _email,\r\n            aadharIpfsHash: _aadharIpfsHash,\r\n            pan_num: _pan_num,\r\n            phone_num: _phone_num,\r\n            verified:false\r\n        });\r\n\r\n        registrationMapping[msg.sender]=true;\r\n        users[msg.sender] = newUser;\r\n\r\n        emit UserRegistered(_name,_age,_email,_aadharIpfsHash,_pan_num,_phone_num);\r\n    }\r\n\r\n// Get the user details\r\n     function getUserDetails(address i) public view returns (string memory, uint, string memory, string memory, string memory, string memory,bool) {\r\n        return (users[i].name,users[i].age,users[i].email,users[i].aadharIpfsHash,users[i].pan_num,users[i].phone_num,users[i].verified);\r\n    }\r\n}\r\n//     function addLand(string memory _name, uint256 _price) public {\r\n\r\n//         Land memory newLand = Land({\r\n//             id: landCount,\r\n//             name: _name,\r\n//             owner: msg.sender,\r\n//             forSale: false,\r\n//             price: _price\r\n//         });\r\n\r\n//         lands[landCount] = newLand;\r\n//         landCount++;\r\n\r\n//         emit LandAdded(newLand.id, newLand.name, newLand.owner);\r\n//     }\r\n\r\n//     function buyLand(uint256 _id) public payable {\r\n//         Land memory land = lands[_id];\r\n        \r\n//         require(land.forSale, \"Land not for sale\");\r\n//         require(msg.value == land.price, \"Incorrect price\");\r\n\r\n//         address payable oldOwner = land.owner;\r\n//         address payable newOwner = msg.sender;\r\n\r\n//         oldOwner.transfer(msg.value);\r\n\r\n//         land.owner = newOwner;\r\n//         land.forSale = false;\r\n//         lands[_id] = land;\r\n\r\n//         emit LandBought(_id, newOwner, msg.value);\r\n//     }\r\n// }\r\n",
  "sourcePath": "C:/Blockchain/Land-Registration-Bloakchain/blockchain/contracts/LandRegistry.sol",
  "compiler": {
    "name": "solc",
    "version": "0.5.0+commit.1d4f565a.Emscripten.clang"
  },
  "schemaVersion": "3.0.2",
  "updatedAt": "2023-04-14T18:57:26.546Z",
  "devdoc": {
    "methods": {}
  },
  "userdoc": {
    "methods": {}
  }
}